:100000000C942A000C9447000C9447000C94470071
:100010000C9447000C9447000C9447000C94470044
:100020000C9447000C9447000C9447000C94470034
:100030000C9447000C9447000C9447000C94470024
:100040000C9447000C9447000C9447000C945E00FD
:100050000C94470011241FBECFE5D8E0DEBFCDBF12
:1000600010E0A0E6B0E0E8EEF1E002C005900D92ED
:10007000A836B107D9F720E0A8E6B0E001C01D928C
:10008000AD36B207E1F70E949A000C94F2000C948E
:100090000000863479F08F709091680089278093F2
:1000A00068008BB3807F8BBB8BB390916800892BEA
:1000B0008BBB08958BB3807F8BBB08951F920F92EB
:1000C0000FB60F9211242F933F934F935F936F932B
:1000D0007F938F939F93AF93BF93EF93FF9381B1E0
:1000E000887F803801F1B8F4811102C016BE10B8C3
:1000F00085EC86BFFF91EF91BF91AF919F918F915A
:100100007F916F915F914F913F912F910F900FBE13
:100110000F901F901895883A59F7E0916900F09177
:100120006A000995E5CF83B1E0916B00F0916C0016
:100130000995DECFCF93DF93CDB7DEB728970FB603
:10014000F894DEBF0FBECDBF98E0E0E6F0E0DE0140
:10015000119601900D929A95E1F729813A81243008
:10016000310509F43DC02B813C8124303105B1F1CA
:100170002D813E812430310579F12F81388524305D
:10018000310541F191B19C7F91B991B1892B81B930
:100190008CE080B981B1877081B986E082B986B779
:1001A0008E7F86BF81B1887F21F081B1887F09F081
:1001B00081B189E490E090936C0080936B00109281
:1001C0006A001092690085EC86BF78948AB38F60CC
:1001D0008ABBFFCF83E0D6CF82E0D4CF81E0D2CFFD
:0801E00080E0D0CFF894FFCFBE
:0801E8000100040010004000BA
:00000001FF
