:100000000C942A000C9433080C945A080C94470062
:100010000C9447000C9447000C9447000C94470044
:100020000C9447000C94C1080C9447000C944700B2
:100030000C9447000C940C080C9447000C94470057
:100040000C9447000C9447000C9447000C948108D2
:100050000C94470011241FBECFE5D8E0DEBFCDBF12
:1000600011E0A0E6B0E0E6EFF4E202C005900D92E8
:10007000A238B107D9F721E0A2E8B1E001C01D9292
:10008000A039B207E1F70E94E7080C9479120C94AA
:1000900000009C013327892F99278130910509F4AD
:1000A00040C060F18230910519F00397A1F00895E6
:1000B00035B381E090E0022E01C0880F0A94EAF780
:1000C0008095832385BB85B301C0660F2A95EAF727
:1000D000682B65BB089532B381E090E0022E01C029
:1000E000880F0A94EAF78095832382BB82B301C00C
:1000F000660F2A95EAF7682B62BB08953BB381E04F
:1001000090E0022E01C0880F0A94EAF780958323BD
:100110008BBB8BB301C0660F2A95EAF7682B6BBBCC
:10012000089538B3022E01C0880F0A94EAF780952B
:10013000832388BB88B301C0660F2A95EAF7682B32
:1001400068BB08959C013327892F99278130910539
:1001500009F440C060F18230910519F00397A1F0D5
:10016000089534B381E090E0022E01C0880F0A9414
:10017000EAF78095832384BB84B301C0660F2A9578
:10018000EAF7682B64BB089531B381E090E0022E5A
:1001900001C0880F0A94EAF78095832381BB81B35D
:1001A00001C0660F2A95EAF7682B61BB08953AB340
:1001B00081E090E0022E01C0880F0A94EAF7809552
:1001C00083238ABB8AB301C0660F2A95EAF7682B9E
:1001D0006ABB089537B3022E01C0880F0A94EAF76C
:1001E0008095832387BB87B301C0660F2A95EAF702
:1001F000682B67BB0895AF92BF92CF92DF92EF92C8
:10020000FF920F931F93CF93DF93CDB7DEB7629723
:100210000FB6F894DEBF0FBECDBF8CE0E2E6F0E093
:10022000DE01119601900D928A95E1F786E0EEE6E7
:10023000F0E0DE011D9601900D928A95E1F78D8523
:100240009E859C013327892F99278130910509F4D8
:100250000EC108F4FDC08230910509F4A3C00397D4
:1002600071F432B381E090E001C0880F2A95EAF77B
:10027000982F9095932392BB92B3892B82BB8F8545
:1002800098899C013327892F99278130910509F49A
:10029000C3C008F424C18230910509F411C1039749
:1002A00071F432B381E090E001C0880F2A95EAF73B
:1002B000982F9095932392BB92B3892B82BB898907
:1002C0009A899C013327892F99278130910509F458
:1002D000EAC008F4D9C08230910509F4AAC0039796
:1002E00071F432B381E090E001C0880F2A95EAF7FB
:1002F000982F9095932392BB92B3892B82BB6E016A
:100300008DE0C80ED11CF12CE12CAA24A394B12CB1
:10031000F601819191916F01AC015527292F332767
:100320002130310509F46DC008F45FC02230310579
:1003300009F447C02330310559F452B3950101C087
:10034000220F4A95EAF72095252322BB22B322BB30
:1003500029B321FB002700F910E021FF44C0CA9B0C
:10036000CDC0CB9BE6C0CC9BE8C061E070E00E94B2
:100370004900FFEFEF1AFF0A83E0E816F10441F6A7
:1003800088E762960FB6F894DEBF0FBECDBFDF914F
:10039000CF911F910F91FF90EF90DF90CF90BF9082
:1003A000AF90089535B381E090E001C0880F2A95A1
:1003B000EAF7982F9095932395BB95B3892B85BB2E
:1003C0005ECF55B3950101C0220F4A95EAF72095FB
:1003D000252325BB25B325BB29B321FB002700F925
:1003E00010E021FDBCCF21E08AC05BB3950101C0C4
:1003F000220F4A95EAF7209525232BBB2BB32BBB65
:10040000A7CF58B301C0220F4A95EAF720952523BC
:1004100028BB28B328BB9CCF38B301C0880F2A95CE
:10042000EAF7982F9095932398BB98B3892B88BBB4
:1004300046CF35B381E090E001C0880F2A95EAF7F6
:10044000982F9095932395BB95B3892B85BB57CF58
:100450003BB381E090E001C0880F2A95EAF7982F1E
:10046000909593239BBB9BB3892B8BBB08CF38B351
:1004700001C0880F2A95EAF7982F9095932398BB8F
:1004800098B3892B88BBFBCE3BB381E090E001C0E1
:10049000880F2A95EAF7982F909593239BBB9BB3DF
:1004A000892B8BBB2CCF38B301C0880F2A95EAF774
:1004B000982F9095932398BB98B3892B88BB1FCF17
:1004C00035B381E090E001C0880F2A95EAF7982FB4
:1004D0009095932395BB95B3892B85BBF0CE3BB309
:1004E00081E090E001C0880F2A95EAF7982F909557
:1004F00093239BBB9BB3892B8BBBE1CE22E089B3BB
:1005000090E0022E02C0959587950A94E2F780FF4D
:10051000F6CFC801880F991F080F191F81E090E0DE
:100520008C0F9D1F080F191FE00EF11EF70180812F
:1005300028CF23E002E010E0E2CF24E003E010E067
:10054000DECF8CB18093890181E08093880108958A
:1005500081E090E0909386018093850108958091D9
:10056000830190918401C19739F081E390E09093E9
:10057000840180938301089582E390E09093840145
:10058000809383010895CF93DF93CDB7DEB786B70D
:10059000806286BF86B7806886BF86B7846086BF64
:1005A00006B607FC16C080E090E0DC0106C0893E7C
:1005B00023E09207A105B10561F00196A11DB11DCF
:1005C00006B607FEF4CF883E9340A105B10509F4B5
:1005D000BCC081B1887F883029F081B1887F8830A4
:1005E00009F081B18F81880F83B986B7806886BF93
:1005F00086B7806886BF86B7846086BF06B607FC6C
:1006000016C080E090E0DC0106C0893E23E092073E
:10061000A105B10561F00196A11DB11D06B607FE49
:10062000F4CF883E9340A105B10509F48AC081B199
:10063000887F883129F081B1887F883109F081B1C4
:10064000898583B986B7806886BF86B7806886BF8C
:1006500086B7846086BF06B607FC15C080E090E0D0
:10066000DC0106C0893E23E09207A105B10559F0DF
:100670000196A11DB11D06B607FEF4CF883E93403A
:10068000A105B10549F181B1887F8832B9F040E018
:1006900050E0BA0106C0483E83E058076105710585
:1006A000F1F04F5F5F4F6F4F7F4F81B1887F88328E
:1006B00091F7483E53406105710589F081B1887F0B
:1006C00029ED30E0883271F081B1887F883209F0FD
:1006D00081B12AED30E006C086B78F7786BF81B141
:1006E0002CED30E091B1977091B996B7906196BFBB
:1006F00096B7906896BF96B7906896BF96B7946085
:1007000096BF06B607FC16C040E050E0BA0106C02E
:10071000493E83E058076105710561F04F5F5F4F07
:100720006F4F7F4F06B607FEF3CF483E534061053B
:10073000710579F010B816BE81B1C901DF91CF9172
:10074000089586B78F7786BF7ACF86B78F7D86BFAD
:1007500048CF86B78F7786BF81B1C901DF91CF912E
:1007600008956F927F928F929F92AF92BF92CF9295
:10077000DF92EF92FF920F931F93CF93DF93CDB74A
:10078000DEB728970FB6F894DEBF0FBECDBF98E056
:10079000E4E7F0E0DE01119601900D929A95E1F701
:1007A000482F50E084FB882480F829813A81F901A0
:1007B000FF27232F33272130310509F4A7C108F47F
:1007C00092C12230310509F46AC12330310591F418
:1007D00092B321E030E00E2E01C0220F0A94EAF716
:1007E0002095292322BB92B301C0880CEA95EAF731
:1007F000892A82BA45FBAA24A0F82B813C81F90101
:10080000FF27232F33272130310509F45BC108F47A
:10081000C6C12230310509F4AEC12330310591F44F
:1008200092B321E030E00E2E01C0220F0A94EAF7C5
:100830002095292322BB92B301C0AA0CEA95EAF7BE
:10084000A92AA2BA46FBCC24C0F82D813E81F90129
:10085000FF27232F33272130310509F47BC108F40A
:1008600066C12230310509F4C1C22330310591F44B
:1008700092B321E030E00E2E01C0220F0A94EAF775
:100880002095292322BB92B301C0CC0CEA95EAF74C
:10089000C92AC2BAFA01EE0FEF2FEE1FFF0B2F810C
:1008A0003885D901BB27232F33272130310509F49F
:1008B0008CC208F477C22230310509F460C22330BB
:1008C000310591F492B321E030E00A2E01C0220FED
:1008D0000A94EAF72095292322BB92B301C0EE0FB8
:1008E000AA95EAF7E92BE2BB20B3979892B330E0E0
:1008F000207833272058292B22BB35ED3A95F1F784
:10090000000090B3979822B39078922B92BB80FB13
:10091000EE24E0F889819A819C013327892F992759
:100920008130910509F41AC208F405C2823091059C
:1009300009F4EEC1039791F432B381E090E0022E06
:1009400001C0880F0A94EAF78095832382BB82B3A3
:1009500001C0EE0C2A95EAF7E82AE2BA41FB00272B
:1009600000F98B819C819C013327892F9927813045
:10097000910509F4BCC108F4A7C18230910509F4BE
:1009800090C1039791F432B381E090E0022E01C050
:10099000880F0A94EAF78095832382BB82B301C053
:1009A000000F2A95EAF7082B02BB42FB662760F985
:1009B0008D819E819C013327892F99278130910554
:1009C00009F45EC108F449C18230910509F432C1CD
:1009D000039791F432B381E090E0022E01C0880FBA
:1009E0000A94EAF78095832382BB82B301C0660F25
:1009F0002A95EAF7682B62BB43FB662460F88F8177
:100A000098859C013327892F99278130910509F416
:100A100000C108F4EBC08230910509F4D4C00397FB
:100A200091F432B381E090E0022E01C0880F0A9465
:100A3000EAF78095832382BB82B301C0660C2A95B6
:100A4000EAF7682A62BA80B3979822B390E0807878
:100A500099278058822B82BB35ED3A95F1F700003B
:100A600080B3979892B38078892B82BB85ED8A9565
:100A7000F1F7000028960FB6F894DEBF0FBECDBF89
:100A8000DF91CF911F910F91FF90EF90DF90CF906A
:100A9000BF90AF909F908F907F906F90089595B387
:100AA00021E030E00E2E01C0220F0A94EAF72095D3
:100AB000292325BB95B301C0880CEA95EAF7892A5A
:100AC00085BA98CE98B30E2E01C0220F0A94EAF789
:100AD0002095292328BB98B301C0AA0CEA95EAF710
:100AE000A92AA8BAAFCE9BB321E030E00E2E01C0F8
:100AF000220F0A94EAF7209529232BBB9BB301C050
:100B0000880CEA95EAF7892A8BBA74CE98B30E2E30
:100B100001C0220F0A94EAF72095292328BB98B335
:100B200001C0880CEA95EAF7892A88BA63CE9BB39C
:100B300021E030E00E2E01C0220F0A94EAF7209542
:100B400029232BBB9BB301C0CC0CEA95EAF7C92A39
:100B5000CBBAA0CE98B30E2E01C0220F0A94EAF7AA
:100B60002095292328BB98B301C0CC0CEA95EAF75D
:100B7000C92AC8BA8FCEF5B321E030E00E2E01C0ED
:100B8000220F0A94EAF7922F90959F2395BB95B375
:100B900001C0AA0CEA95EAF7A92AA5BA53CEFBB37D
:100BA00021E030E00E2E01C0220F0A94EAF7922FC6
:100BB00090959F239BBB9BB301C0AA0CEA95EAF7D3
:100BC000A92AABBA3FCE35B381E090E0022E01C036
:100BD000880F0A94EAF78095832385BB85B301C00B
:100BE000660C2A95EAF7682A65BA2DCF3BB381E0F7
:100BF00090E0022E01C0880F0A94EAF780958323C3
:100C00008BBB8BB301C0660C2A95EAF7682A6BBAD6
:100C10001ACF38B3022E01C0880F0A94EAF78095E4
:100C2000832388BB88B301C0660C2A95EAF7682A3B
:100C300068BA09CF35B381E090E0022E01C0880F79
:100C40000A94EAF78095832385BB85B301C0660FBC
:100C50002A95EAF7682B65BBCFCE3BB381E090E0E5
:100C6000022E01C0880F0A94EAF7809583238BBB7C
:100C70008BB301C0660F2A95EAF7682B6BBBBCCE1D
:100C800038B3022E01C0880F0A94EAF780958323B7
:100C900088BB88B301C0660F2A95EAF7682B68BB4A
:100CA000ABCE35B381E090E0022E01C0880F0A94EC
:100CB000EAF78095832385BB85B301C0000F2A9591
:100CC000EAF7082B05BB71CE3BB381E090E0022E22
:100CD00001C0880F0A94EAF7809583238BBB8BB3FE
:100CE00001C0000F2A95EAF7082B0BBB5ECE38B384
:100CF000022E01C0880F0A94EAF78095832388BBEF
:100D000088B301C0000F2A95EAF7082B08BB4DCE27
:100D100035B381E090E0022E01C0880F0A94EAF713
:100D20008095832385BB85B301C0EE0C2A95EAF735
:100D3000E82AE5BA13CE3BB381E090E0022E01C071
:100D4000880F0A94EAF7809583238BBB8BB301C08D
:100D5000EE0C2A95EAF7E82AEBBA00CE38B3022E59
:100D600001C0880F0A94EAF78095832388BB88B373
:100D700001C0EE0C2A95EAF7E82AE8BAEFCD95B360
:100D800021E030E00A2E01C0220F0A94EAF72095F4
:100D9000292325BB95B301C0EE0FAA95EAF7E92BED
:100DA000E5BBA2CD9BB321E030E00A2E01C0220FAB
:100DB0000A94EAF7209529232BBB9BB301C0EE0FC1
:100DC000AA95EAF7E92BEBBB8FCD98B30A2E01C0A9
:100DD000220F0A94EAF72095292328BB98B301C073
:100DE000EE0FAA95EAF7E92BE8BB7ECD95B321E09B
:100DF00030E00E2E01C0220F0A94EAF72095292335
:100E000025BB95B301C0CC0CEA95EAF7C92AC5BA4F
:100E100041CD0F931F93CF93FC019598959A8081B4
:100E2000882359F08F01C0E00E94B103CF5FF80121
:100E3000EC0FF11D80818111F7CFCF911F910F91A0
:100E400008951F93CF93DF93CDB7DEB769970FB6A1
:100E5000F894DEBF0FBECDBF9E012F5D3F4F48E926
:100E600050E069E170E0CE0101960E94980F9598DC
:100E7000959A8981882369F010E00E94B1031F5F71
:100E8000E1E0F0E0EC0FFD1FE10FF11D8081811129
:100E9000F4CF69960FB6F894DEBF0FBECDBFDF91D9
:100EA000CF911F910895959892B392BB9AE19A952C
:100EB000F1F700C00E94B1038FE99EE10197F1F7BD
:100EC00000C000000895CF93DF93CDB7DEB7289719
:100ED0000FB6F894DEBF0FBECDBF98E0ECE7F0E0B0
:100EE000DE01119601900D929A95E1F729813A81E0
:100EF00024303105A9F18B819C81049799F18D8172
:100F00009E81049789F18F819885049779F191B139
:100F10009C7F91B981B1842B81B98CE080B981B17A
:100F2000877081B982E082B986B78E7F86BF81B132
:100F3000887F81F081B1887F81F081B1887F826074
:100F400090E028960FB6F894DEBF0FBECDBFDF91BC
:100F5000CF91089581E090E0F4CF82E090E0F1CF6E
:100F600040E0D5CF41E0D3CF42E0D1CF43E0CFCF77
:100F7000CF93DF93CDB7DEB72C970FB6F894DEBFD3
:100F80000FBECDBF9CE0E4E8F0E0DE0111960190D9
:100F90000D929A95E1F729813A812115344081F12A
:100FA0008B819C818115944079F18D819E81811581
:100FB000944061F18F8198858115944049F189852C
:100FC0009A8581159440F1F08B859C85811594401C
:100FD00009F19EB5987F9EBD8EB5842B8EBD86EFA0
:100FE00092EC9DBD8CBD89B7846089BF78942C96A6
:100FF0000FB6F894DEBF0FBECDBFDF91CF9108953D
:1010000040E0E7CF44E0E5CF41E0E3CF42E0E1CF8D
:1010100043E0DFCF45E0DDCF1F920F920FB60F9276
:1010200011242F933F934F935F936F937F938F93ED
:101030009F93AF93BF93EF93FF93E0918E01F09155
:101040008F010995FF91EF91BF91AF919F918F9182
:101050007F916F915F914F913F912F910F900FBEB4
:101060000F901F9018951F920F920FB60F92112498
:101070002F933F934F935F936F937F938F939F93A0
:10108000AF93BF93EF93FF93E0918C01F0918D01AB
:101090000995FF91EF91BF91AF919F918F917F91B2
:1010A0006F915F914F913F912F910F900FBE0F90D5
:1010B0001F9018951F920F920FB60F9211242F9325
:1010C0003F934F935F936F937F938F939F93AF93D0
:1010D000BF93EF93FF93E0918A01F0918B01099503
:1010E000FF91EF91BF91AF919F918F917F916F9100
:1010F0005F914F913F912F910F900FBE0F901F90D6
:1011000018951F920F920FB60F9211242F933F93B1
:101110004F935F936F937F938F939F93AF93BF93FF
:10112000EF93FF9381B1887F8038F1F0B8F0883A6F
:1011300021F1883BB9F485EC86BFFF91EF91BF9117
:10114000AF919F918F917F916F915F914F913F915F
:101150002F910F900FBE0F901F901895882349F084
:10116000803649F385E8E8CF83B1F0E0E0E0099507
:10117000E2CF16BE10B885E8DFCFF0E0E0E00995D9
:10118000DACF1F920F920FB60F9211248F93809196
:1011900087018F5F8093870180918701833031F0D1
:1011A0008F910F900FBE0F901F9018951DBC1CBC07
:1011B0008EB5887F8EBD88B78B7F88BF89B78B7FC0
:1011C00089BF8F910F900FBE0F901F901895CF93EE
:1011D000DF93CDB7DEB763970FB6F894DEBF0FBECF
:1011E000CDBF88E0E4E7F0E0DE01119601900D92BA
:1011F0008A95E1F761E070E087E093E00E94A20049
:1012000061E070E085E093E00E94A2008E010F5F34
:101210001F4F7E0129E0E20EF11C61E070E0F80151
:10122000819191918F010E94A200E016F106A9F729
:1012300082E00E94530788E20E9453078CE00E94DC
:10124000530786E00E9453078FEC97E00197F1F770
:1012500000C0000088E0E0E9F0E0DE0111960190B6
:101260000D928A95E1F78E010F5F1F4FF801C19033
:10127000D1908F0161E070E0C6010E94490070E0EA
:1012800060E0C6010E94A200E016F10679F786E050
:10129000EEE6F0E0DE011C9601900D928A95E1F7F2
:1012A00061E070E08C859D850E94A20061E070E0A5
:1012B0008E859F850E94A20061E070E088899989EF
:1012C0000E94A2000E94B80778948BB780648BBFFD
:1012D0008A98929A85B7826085BF85B78E7F85BFD1
:1012E00078948BB780688BBF8B98939A85B788600A
:1012F00085BF85B78B7F85BF8FEA92E090938D0184
:1013000080938C0188EA92E090938B0180938A010C
:1013100080E18BB91AB886E480BD599A58988AB191
:1013200088618AB98FB780688FBF579A80B58F77E9
:1013300080BD10BC8FEC89B981EA92E090938F0157
:1013400080938E01959882B382BBFAE1FA95F1F70A
:1013500000C081E00E94B1038FE99EE10197F1F79F
:1013600000C0000082E80E9453078CE990E00E94D0
:10137000090782EC0E9453078DEA90E00E9409075A
:101380000E94FB008837E1F3082E000C990B909324
:10139000840180938301FE0172964F019E012B5FB1
:1013A0003F4F290198E9A92E90E0B92E2FE4222E73
:1013B000312C8091830190918401C29709F495C0EA
:1013C00080918201882309F4BFC1809185019091A9
:1013D0008601892B09F0BEC380918801813049F7CD
:1013E00010928801959882B382BB3AE13A95F1F761
:1013F00000C08CEC0E94B1038FE99EE10197F1F7E8
:1014000000C0000080918901863408F43EC495989C
:1014100082B382BB9AE19A95F1F700C080EC0E94FA
:10142000B103EFE9FEE13197F1F700C000009598B4
:10143000959A10E08FE40E94B1031F5FE12FF0E066
:10144000EE5AFE4F80818111F6CF57985F9BFECFF9
:101450001CB1163409F471C4109287018FB78068EB
:101460008FBF579A959882B382BBFAE1FA95F1F74C
:1014700000C080EC0E94B1038FE99EE10197F1F773
:1014800000C000009598959A10E08DE40E94B10389
:101490001F5FE12FF0E0E650FF4F80818111F6CF12
:1014A000959882B382BB9AE19A95F1F700C08CECD3
:1014B0000E94B103EFE9FEE13197F1F700C00000AF
:1014C000809189018150990B9F938F93BF92AF9226
:1014D0000E9421070F900F900F900F908091830131
:1014E00090918401C29709F06BCF0E94630788E056
:1014F000E0E9F0E0DE01119601900D928A95E1F7A6
:10150000CE0101966C01F601019111916F0161E02C
:1015100070E0C8010E94490070E060E0C8010E94CC
:10152000A200EC14FD0479F786E0EEE6F0E0DE01BF
:101530001C9601900D928A95E1F761E070E08C8530
:101540009D850E94A20061E070E08E859F850E94CB
:10155000A20061E070E0888999890E94A2009598B4
:1015600082B382BBFAE1FA95F1F700C080E80E94ED
:10157000B1038FE99EE10197F1F700C00000959853
:10158000959A10E080E20E94B1031F5FE12FF0E026
:10159000E254FF4F80818111F6CF959882B382BBD0
:1015A0009AE19A95F1F700C080EC0E94B103EFE94F
:1015B000FEE13197F1F700C000009598959A10E090
:1015C00080E20E94B1031F5FE12FF0E0ED52FF4F78
:1015D00080818111F6CF0E94FB008837E1F38133CF
:1015E00009F457C388E0E0E9F0E0DE0111960190CC
:1015F0000D928A95E1F7FE0131966F01F601019196
:1016000011916F0170E060E0C8010E94490070E034
:1016100060E0C8010E94A200CE14DF0479F786E0E2
:10162000EEE6F0E0DE011C9601900D928A95E1F75E
:101630009E01245F3F4F6901F601019111916F01F5
:1016400070E060E0C8010E94490070E060E0C801FD
:101650000E94A200C814D90479F711B810B812B8C2
:1016600012B800918201959882B382BBFAE1FA9593
:10167000F1F700C081E00E94B1038FE99EE101977C
:10168000F1F700C000009598959A10E08DE40E9453
:10169000B1031F5FE12FF0E0E851FF4F808181111E
:1016A000F6CF1F920F93BF92AF920E942107959899
:1016B00082B382BB9AE19A95F1F700C08FE80E944D
:1016C000B103EFE9FEE13197F1F700C00000959812
:1016D000959A0F900F900F900F9010E08BE50E945D
:1016E000B1031F5FE12FF0E0EB50FF4F80818111CC
:1016F000F6CF959882B382BBFAE1FA95F1F700C074
:1017000080EC0E94B1038FE99EE10197F1F700C0E0
:1017100000009598959A10E08DE40E94B1031F5F38
:10172000E12FF0E0E650FF4F80818111F6CF81E09C
:1017300080938801E1E3F0E0F0938401E09383017A
:1017400080918201811141CE959882B382BBFAE1EA
:10175000FA95F1F700C081E00E94B1038FE99EE1A4
:101760000197F1F700C00000959882B382BB9AE11F
:101770009A95F1F700C082E80E94B103EFE9FEE11B
:101780003197F1F700C000009598959A10E08DE42C
:101790000E94B1031F5FE12FF0E0ED5EFE4F8081FC
:1017A0008111F6CFFFEF23EC39E0F15020403040BB
:1017B000E1F700C00000809182018150843608F476
:1017C00004CE959882B382BB8AE18A95F1F700C076
:1017D00081E00E94B103EFE9FEE13197F1F700C02B
:1017E0000000959882B382BBFAE1FA95F1F700C048
:1017F00085E80E94B1038FE99EE10197F1F700C0EF
:1018000000009598959A10E085E40E94B1031F5F4F
:10181000E12FF0E0ED5DFE4F80818111F6CF9598CC
:1018200082B382BB9AE19A95F1F700C08AEC0E94DC
:10183000B103EFE9FEE13197F1F700C0000088E065
:10184000E0E9F0E0DE01119601900D928A95E1F752
:101850008E010F5F1F4FF801C190D1908F0161E0A1
:1018600070E0C6010E94490070E060E0C6010E947D
:10187000A2000E151F0579F786E0EEE6F0E0DE0126
:101880001C9601900D928A95E1F761E070E08C85DD
:101890009D850E94A20061E070E08E859F850E9478
:1018A000A20061E070E0888999890E94A2008E01FF
:1018B0000F5F1F4F68010E94FB008837E1F3F801BA
:1018C00081938F018A3209F4DDC19598959AF5EDDF
:1018D000FA95F1F700000E94B1030415150551F7C0
:1018E000CE0101960E943D0F3C018B8B80938201BB
:1018F00088E0E0E9F0E0DE01119601900D928A9512
:10190000E1F78E010F5F1F4FF801C190D1908F0159
:1019100070E060E0C6010E94490070E060E0C6012E
:101920000E94A200E016F10679F786E0EEE6F0E00C
:10193000DE011C9601900D928A95E1F78E01045FFD
:101940001F4FF801C190D1908F0170E060E0C60197
:101950000E94490070E060E0C6010E94A2000815E4
:10196000190579F7FB89959882B382BBF53608F0A3
:1019700046C12AE12A95F1F700C081E00E94B10337
:101980008FE99EE10197F1F700C00000959882B3BE
:1019900082BB9AE19A95F1F700C086E80E94B103F4
:1019A000EFE9FEE13197F1F700C000009598959AB4
:1019B00010E083E50E94B1031F5FE12FF0E0E15DDD
:1019C000FE4F80818111F6CF959882B382BBFAE1F8
:1019D000FA95F1F700C088EC0E94B1038FE99EE10F
:1019E0000197F1F700C0000077247F926F92BF92B9
:1019F000AF920E9421079598959A95ED9A95F1F7E7
:101A0000000085E20E94B103EFEFF1EE24E0E15027
:101A1000F0402040E1F700C00000959882B382BBFF
:101A20003AE13A95F1F700C081E00E94B1038FE9F5
:101A30009EE10197F1F700C00000009182019598A6
:101A400082B382BB9AE19A95F1F700C081E00E94CF
:101A5000B103EFE9FEE13197F1F700C0000095987E
:101A6000959A0F900F900F900F9010E08DE40E94C8
:101A7000B1031F5FE12FF0E0E851FF4F808181113A
:101A8000F6CF1F920F93BF92AF920E9421079598B5
:101A900082B382BBFAE1FA95F1F700C08FE80E94A9
:101AA000B1038FE99EE10197F1F700C0000095981E
:101AB000959A0F900F900F900F9010E08BE50E9479
:101AC000B1031F5FE12FF0E0EB50FF4F80818111E8
:101AD000F6CF959882B382BB9AE19A95F1F700C050
:101AE00080EC0E94B103EFE9FEE13197F1F700C00D
:101AF00000009598959A10E08DE40E94B1031F5F55
:101B0000E12FF0E0E650FF4F80818111F6CF809108
:101B100082014AE0BE016F5F7F4F90E00E945B0F41
:101B2000FE01319690818BB1829586958770D9F3AD
:101B30009CB98FE19EE40197F1F700C00000319657
:101B4000DF0111978C918111EDCF309261002092CD
:101B5000600031CE959882B382BB9AE19A95F1F7F5
:101B600000C08FE80E94B103EFE9FEE13197F1F781
:101B700000C0000080916000909161008234910566
:101B800041F08F349105F9F0109286011092850191
:101B900023CC8BB1829586958770D9F38FE48CB96D
:101BA0009598959A10E08BE50E94B1031F5FE12F95
:101BB000F0E0E45BFE4F80818111F6CF309261004E
:101BC00020926000E1CF8BB1829586958770D9F322
:101BD00082E48CB99598959A10E08BE50E94B10348
:101BE0001F5FE12FF0E0EA5BFE4F80818111F6CFAD
:101BF00022E430E03093610020936000C5CF9AE189
:101C00009A95F1F700C081E00E94B103EFE9FEE18F
:101C10003197F1F700C00000959882B382BBFAE1DA
:101C2000FA95F1F700C084E80E94B1038FE99EE1C4
:101C30000197F1F700C000009598959A10E089E4AB
:101C40000E94B1031F5FE12FF0E0E85CFE4F80814E
:101C50008111F6CF9FEFE3ECF9E09150E040F040C6
:101C6000E1F700C00000959882B382BB2AE12A9573
:101C7000F1F700C081E00E94B1038FE99EE1019776
:101C8000F1F797CDF60110822BCE809189011F923A
:101C90001CCC959882B382BBFAE1FA95F1F700C0AB
:101CA00080E80E94B1038FE99EE10197F1F700C03F
:101CB0000000959882B382BB9AE19A95F1F700C033
:101CC0008EE00E94B103EFE9FEE13197F1F700C029
:101CD00000000E94FB008837E1F3833309F4C7C09A
:101CE0000CF4BDC0853309F4B7C00CF4B2C0863320
:101CF00011F49CE09A8B959882B382BBFAE1FA9535
:101D0000F1F700C08CE00E94B1038FE99EE10197DA
:101D1000F1F700C000001F929A899F931F9283E001
:101D20008F931F9282E08F930E94C3020F900F90B7
:101D30000F900F900F900F9055CC0E9463071F9249
:101D40001F931F9283E08F931F9282E08F930E94D4
:101D5000C30211B810B812B812B8959882B382BBFA
:101D6000FAE1FA95F1F700C081E00E94B1038FE932
:101D70009EE10197F1F700C000009598959A0F90A9
:101D80000F900F900F900F900F9010E083E50E943E
:101D9000B1031F5FE12FF0E0EA59FE4F808181110E
:101DA000F6CF959882B382BB9AE19A95F1F700C07D
:101DB00080EC0E94B103EFE9FEE13197F1F700C03A
:101DC00000009598959A10E082E50E94B1031F5F8C
:101DD000E12FF0E0EC58FE4F80818111F6CF0E9498
:101DE000B80780918701833048F584E0E82EF12C14
:101DF00008E910E0959882B382BBFAE1FA95F1F711
:101E000000C08DEC0E94B1038FE99EE10197F1F7CC
:101E100000C0000080918701F701E81BF109CF01A4
:101E20009F93EF931F930F930E9421078091870147
:101E30000F900F900F900F908330E0F21092870177
:101E400088E198E00FB6F894A89581BD0FBE91BDCA
:101E5000FFCF88E08A8B4FCF23E02A8B4CCF813392
:101E600049F0823309F047CFF2E0FA8B44CF34E0F7
:101E70003A8B41CFE1E0EA8B3ECFFC0188279927DE
:101E8000E89421912032E9F3293010F02E30C8F384
:101E90002B3241F02D3239F4689404C00E94660F51
:101EA000820F911D219120532A30C0F31EF490958A
:101EB00081959F4F0895BB274A3031F4992322F42E
:101EC000BDE2909581959F4F0C946F0F7AE0979F9C
:101ED000902D879F802D910D11240895BB27FB0124
:101EE0005527AA27880F991FAA1FA41710F0A41B13
:101EF00083955051B9F7A05DAA3308F0A95DA1936D
:101F0000009779F7B111B1931192CB010C94880F1E
:101F1000DC01FC01672F71917723E1F7329704C050
:101F20007C916D9370836291AE17BF07C8F30895DB
:101F3000AEE0B0E0EEE9FFE00C9450128C01FA0143
:101F400086E08C831A83098377FF02C060E070E823
:101F5000615071097E836D83A901BF01CE01019695
:101F60000E94C40F4D815E8157FD0AC02F813885C4
:101F7000421753070CF49A01020F131FF801108245
:101F80002E96E4E00C946C12ABE0B0E0EAECFFE0DB
:101F90000C9442127C013B018A01FC0117821682DB
:101FA000838181FFC8C1CE0101965C01F701938155
:101FB000F30193FD859193FF81913F01882309F4FB
:101FC00053C1853239F493FD859193FF81913F018F
:101FD000853229F4B70190E00E94B411E7CF912C2B
:101FE000212C312CFFE1F31538F08B3211F190F4F4
:101FF000803209F1833229F137FC3CC020ED280FF3
:102000002A3050F536FE20C08AE0989E200D11241B
:10201000922E06C08D3291F0803371F7689430F8BB
:10202000F30193FD859193FF81913F018111DACFF7
:1020300021C0689431F8689432F8F2CF689433F88C
:10204000EFCF689434F8ECCFEAE02E9E200D1124F7
:10205000222E689435F8E4CF8E3229F436FC04C180
:10206000689436F8DDCF8C3619F4689437F8D8CFF9
:102070008836B1F2982F9F7D95549330E0F08336E7
:10208000A1F18337C1F1833509F063C02801F2E083
:102090004F0E511CF801C080D180692D70E036FCD4
:1020A00002C06FEF7FEFC6010E949E114C01689441
:1020B00037F882010AC00C5F1F4FFFE3F9838824C1
:1020C0008394912C6501E89437F833FE2DC0522C8F
:1020D0008114910471F5552009F468CFB70180E2AD
:1020E00090E00E94B4115A94F6CFF8018081898360
:1020F0000E5F1F4FE4CF2801F2E04F0E511CF80194
:10210000C080D180692D70E036FC02C06FEF7FEF98
:10211000C6010E94A9114C018201D5CFB70180E20E
:1021200090E00E94B4112A942814190409F0B0F721
:10213000CECFF60137FC859137FE81916F01B70153
:1021400090E00E94B41151105A94F1E08F1A910856
:10215000BFCF843619F0893609F077C0F80137FE11
:102160006BC060817181828193810C5F1F4FF32D61
:10217000FF763F2E97FF09C09095809570956195E9
:102180007F4F8F4F9F4F689437F82AE030E0A501CA
:102190000E94E411C82ECA188C2C432C36FE0CC0A9
:1021A000E89440F8C91440F434FE05C032FC03C082
:1021B000F32DFE7E4F2E892C44FE95C0FE01EC0DC2
:1021C000F11D8081803309F087C0242D297E422EA5
:1021D000842D8870582E43FC95C040FE8FC09C2CE7
:1021E000821418F42C0C922C981844FE91C0B7015C
:1021F00080E390E00E94B41142FE09C088E790E0BD
:1022000041FE02C088E590E0B7010E94B411C914F4
:1022100008F48AC0CA94D12C9FEFC91AD90ACA0CF3
:10222000DB1CF60182916F01B70190E00E94B411AE
:10223000AC14BD04B1F74FCF60817181072E000C43
:10224000880B990B0E5F1F4F92CFD32CE894D4F8D4
:102250002AE030E0853739F1232D297FD22E8F36C1
:1022600001F148F48835A9F0F701868197812B9612
:10227000E2E10C945E12803749F08837A9F7D4FE6A
:1022800002C06894D2F820E130E00DC06894D4F820
:10229000F6CF34FE03C0822F8660D82E20E132E0D4
:1022A00002C028E030E0F801D7FE0FC060817181E4
:1022B000828193810C5F1F4FA5010E94E411C82EFB
:1022C000CA183D2CE89437F867CF6081718190E09F
:1022D00080E00E5F1F4FF0CF42FC02C0839478CFA6
:1022E0008394839475CF842D867809F471CFF6CFCB
:1022F000B70180E290E00E94B41183948214C0F38D
:10230000512C73CF522C5818821408F46ECFF8CF8A
:10231000842D867809F47BCF8BE241FE80E247FC76
:102320008DE2B70190E071CFB70180E390E00E94A9
:10233000B4119A946CCF8FEF9FEF99CFFC01059069
:10234000615070400110D8F7809590958E0F9F1FB7
:102350000895FC016150704001900110D8F78095FC
:1023600090958E0F9F1F08950F931F93CF93DF9328
:10237000182F092FEB018B8181FD09C01FEF0FEF93
:10238000812F902FDF91CF911F910F91089582FFA0
:1023900014C02E813F818C819D81281739073CF420
:1023A000E881F981CF0101969983888310838E811A
:1023B0009F8101969F838E83E3CFE885F985812FE6
:1023C0000995892BA1F3DACFFA01AA27283051F118
:1023D000203181F1E8946F936E7F6E5F7F4F8F4F56
:1023E0009F4FAF4FB1E03ED0B4E03CD0670F781FB5
:1023F000891F9A1FA11D680F791F8A1F911DA11D9A
:102400006A0F711D811D911DA11D20D009F46894D2
:102410003F912AE0269F11243019305D3193DEF67A
:10242000CF010895462F4770405D4193B3E00FD030
:10243000C9F7F6CF462F4F70405D4A3318F0495D1B
:1024400031FD4052419302D0A9F7EACFB4E0A695FE
:102450009795879577956795BA95C9F70097610520
:10246000710508959B01AC010A2E06945795479576
:1024700037952795BA95C9F7620F731F841F951F6B
:10248000A01D08952F923F924F925F926F927F927C
:102490008F929F92AF92BF92CF92DF92EF92FF9274
:1024A0000F931F93CF93DF93CDB7DEB7CA1BDB0B20
:1024B0000FB6F894DEBF0FBECDBF09942A883988C5
:1024C00048885F846E847D848C849B84AA84B984CC
:1024D000C884DF80EE80FD800C811B81AA81B981D8
:1024E000CE0FD11D0FB6F894DEBF0FBECDBFED01EC
:0624F0000895F894FFCFEF
:1024F60042003132333435363738392A3023050035
:102506000600070004020502060207020100040095
:102516001000400000000100080040000001000417
:10252600010002000300040025336400313A4354DD
:10253600524C204D4F544F522045435500323A439A
:1025460054524C204C4947485420454355002031AD
:10255600313A46522C2031323A464C2C2031353A0B
:102566004620002031333A52522C2031343A524C14
:102576002C2031363A5220004D4F544F52205350A2
:102586004545443A005B4F4E5D004D4F544F522037
:1025960054454D50203A2020202020202020202065
:1025A6002020004D4F544F52204354524C204D4F43
:1025B600444500454E54455220535045454400532A
:1025C6005045454420495300494E56414C49442004
:1025D6005350454544005B4F46465D005B4F4E5D9C
:1025E60020004F56525F484541545F434F4F4C4978
:1025F6004E475F4F4E0053595354454D204641496F
:102606004C4544005245535441525420494E203AB9
:022616000000C2
:00000001FF
