:100000000C942A000C943C000C943C000C943C0092
:100010000C943C000C943C000C943C000C94520159
:100020000C942E010C94E2000C9476010C949A012D
:100030000C943C000C94BB000C943C000C943C00D1
:100040000C9409010C943C000C943C000C943C0072
:100050000C943C0011241FBECFE5D8E0DEBFCDBF1D
:1000600020E0A0E6B0E001C01D92A637B207E1F79C
:100070000E94BE010C94AD040C9400008EB5887FE4
:100080008EBD8EB5887F8EBD08958FB58E7F8FBD56
:100090008FB582608FBD8EB588618EBD08958091C9
:1000A000700090917100892B49F48FB58C7F8FBDC2
:1000B0008EB58F7E8EBD8EB588608EBD81E090E05E
:1000C000909371008093700008958FB58C7F8FBDE1
:1000D0008EB5877E8EBD8FB58C7F8FBD8EB5877EAA
:1000E0008EBD89B7846089BF89B7877E89BF08952F
:1000F00083B7886483BF089583B7886083BF83B75D
:100100008F7B83BF089583B7877B83BF0895369A1B
:1001100090E080E00895369A3699FECF84B195B18B
:100120000895809164009091650001969093650018
:100130008093640008958CB18234D9F060916A0094
:1001400070916B007727072E000C880B990B0E948B
:10015000A50320E030E048EC52E40E94020320E0D6
:1001600030E04FE753E40E9431040E9474036CBFF7
:1001700008951CBE08951F920F920FB60F9211247E
:100180002F933F934F935F936F937F938F939F939F
:10019000AF93BF93EF93FF93E0917400F0917500DC
:1001A0000995FF91EF91BF91AF919F918F917F91B1
:1001B0006F915F914F913F912F910F900FBE0F90D4
:1001C0001F9018951F920F920FB60F9211242F9324
:1001D0003F934F935F936F937F938F939F93AF93CF
:1001E000BF93EF93FF93E0917200F0917300099534
:1001F000FF91EF91BF91AF919F918F917F916F91FF
:100200005F914F913F912F910F900FBE0F901F90D4
:1002100018951F920F920FB60F9211242F933F93B0
:100220004F935F936F937F938F939F93AF93BF93FE
:10023000EF93FF93F0E0E0E00995FF91EF91BF911C
:10024000AF919F918F917F916F915F914F913F916E
:100250002F910F900FBE0F901F9018951F920F9225
:100260000FB60F9211242F933F934F935F936F9389
:100270007F938F939F93AF93BF93EF93FF930E94CE
:100280000901FF91EF91BF91AF919F918F917F9164
:100290006F915F914F913F912F910F900FBE0F90F3
:1002A0001F9018951F920F920FB60F9211242F9343
:1002B0003F934F935F936F937F938F939F93AF93EE
:1002C000BF93EF93FF930E940901FF91EF91BF91BC
:1002D000AF919F918F917F916F915F914F913F91DE
:1002E0002F910F900FBE0F901F9018951F920F9295
:1002F0000FB60F9211242F933F934F935F936F93F9
:100300007F938F939F93AF93BF93EF93FF930E943D
:100310000901FF91EF91BF91AF919F918F917F91D3
:100320006F915F914F913F912F910F900FBE0F9062
:100330001F9018951F920F920FB60F9211242F93B2
:100340003F934F935F936F937F938F939F93AF935D
:10035000BF93EF93FF930E940901FF91EF91BF912B
:10036000AF919F918F917F916F915F914F913F914D
:100370002F910F900FBE0F901F901895CF93DF9382
:10038000CDB7DEB72B970FB6F894DEBF0FBECDBF4B
:100390001DBC1CBC8EB5887F8EBD8EB5887F8EBD82
:1003A00089B7846089BF85E690E090936F00809361
:1003B0006E008FB780688FBFE0916E00F0916F0084
:1003C000099581E990E0909373008093720083B760
:1003D000887F83BF83B7826083BFBB9A12BE83B717
:1003E0008F7783BF83B78F7E83BF83B7806283BFDE
:1003F0001CBE88E790E090936D0080936C008FB7EF
:1004000080688FBFE0916C00F0916D00099517B87E
:1004100087B18F7387B93D9887B187B916B8379A76
:1004200035988BE890E0909367008093660086B1E2
:10043000836086B910BE80E18BB91AB886E480BDAE
:10044000599A58988AB188618AB980B58F7780BDEA
:1004500010BC8FEC89B9BA9AC2981CBE579820E09C
:1004600090E080E041E050E04C0F5D1F840F951F4D
:100470005F9BFECF3CB1FC0130832F5F822F90E069
:10048000FE01E80FF91F30813111ECCFCE0101964A
:100490000E94DC0290936B0080936A009927BC0154
:1004A000990F880B990B0E94A50320E030E048ECDF
:1004B00052E40E94020320E030E04FE753E40E9440
:1004C00031040E9474036CBF8FB780688FBF579A46
:1004D0008BE990E0909375008093740014E603E438
:1004E0009091690090936800E0916600F091670038
:1004F0000995189FA001199F500D11249A01A1EB95
:10050000BFE30E949E04481B590B56954795840FE4
:10051000951F880F892F881F990B9195982F80938D
:100520006900809168009817E9F28BB182958695F1
:100530008770D9F39CB990916900963498F2C29A69
:100540008EB5887F8EBD8EB584608EBD06C08091CD
:100550006400909165000397E9F0809166009091A6
:100560006700FC0109959C01129FC001139F900D2B
:1005700011248E30984358F70E943E00C298109282
:100580006500109264008BB1829586958770D9F3CF
:100590000CB9A6CF0E943E008BB1829586958770DC
:1005A000D9F386E48CB988E198E00FB6F894A89561
:1005B00081BD0FBE91BDFFCFFC0188279927E8942C
:1005C00021912032E9F3293010F02E30C8F32B327C
:1005D00041F02D3239F4689404C00E94FA02820F6F
:1005E000911D219120532A30C0F31EF490958195DE
:1005F0009F4F08957AE0979F902D879F802D910DB2
:10060000112408950E9416030C94F7030E94F0032E
:1006100058F00E94E90340F029F45F3F29F00C9460
:10062000E00351110C942B040C94E6030E9408047F
:1006300068F39923B1F3552391F3951B550BBB2711
:10064000AA2762177307840738F09F5F5F4F220F56
:10065000331F441FAA1FA9F335D00E2E3AF0E0E84D
:1006600032D091505040E695001CCAF72BD0FE2F97
:1006700029D0660F771F881FBB1F2617370748072B
:10068000AB07B0E809F0BB0B802DBF01FF279358E3
:100690005F4F3AF09E3F510578F00C94E0030C94C4
:1006A0002B045F3FE4F3983ED4F3869577956795E6
:1006B000B795F7959F5FC9F7880F911D9695879518
:1006C00097F90895E1E0660F771F881FBB1F621737
:1006D00073078407BA0720F0621B730B840BBA0BF5
:1006E000EE1F88F7E09508950E94100488F09F5748
:1006F00098F0B92F9927B751B0F0E1F0660F771F46
:10070000881F991F1AF0BA95C9F714C0B13091F03B
:100710000E942A04B1E008950C942A04672F782FD0
:100720008827B85F39F0B93FCCF386957795679500
:10073000B395D9F73EF490958095709561957F4F6C
:100740008F4F9F4F0895E89409C097FB3EF4909512
:100750008095709561957F4F8F4F9F4F9923A9F09A
:10076000F92F96E9BB279395F69587957795679529
:10077000B795F111F8CFFAF4BB0F11F460FF1BC06D
:100780006F5F7F4F8F4F9F4F16C0882311F096E900
:1007900011C0772321F09EE8872F762F05C06623AE
:1007A00071F096E8862F70E060E02AF09A95660F67
:1007B000771F881FDAF7880F9695879597F9089520
:1007C00097F99F6780E870E060E008959FEF80EC04
:1007D000089500240A9416161706180609060895A7
:1007E00000240A9412161306140605060895092E0D
:1007F0000394000C11F4882352F0BB0F40F4BF2B7C
:1008000011F460FF04C06F5F7F4F8F4F9F4F0895BB
:1008100057FD9058440F551F59F05F3F71F04795B1
:10082000880F97FB991F61F09F3F79F08795089596
:10083000121613061406551FF2CF4695F1DF08C0B5
:10084000161617061806991FF1CF869571056105D2
:1008500008940895E894BB2766277727CB0197F97A
:1008600008950E9444040C94F7030E94E90338F0B1
:100870000E94F00320F0952311F00C94E0030C94F7
:10088000E60311240C942B040E94080470F3959F36
:10089000C1F3950F50E0551F629FF001729FBB2777
:1008A000F00DB11D639FAA27F00DB11DAA1F649F13
:1008B0006627B00DA11D661F829F2227B00DA11DC6
:1008C000621F739FB00DA11D621F839FA00D611D4C
:1008D000221F749F3327A00D611D231F849F600D6D
:1008E000211D822F762F6A2F11249F5750409AF096
:1008F000F1F088234AF0EE0FFF1FBB1F661F771F22
:10090000881F91505040A9F79E3F510580F00C94EC
:10091000E0030C942B045F3FE4F3983ED4F38695F8
:1009200077956795B795F795E7959F5FC1F7FE2B8C
:10093000880F911D9695879597F90895A29FB0010C
:10094000B39FC001A39F700D811D1124911DB29F03
:0E095000700D811D1124911D0895F894FFCFA4
:00000001FF
